{
  "_format": "hh-sol-artifact-1",
  "contractName": "EventContract",
  "sourceName": "contracts/Ticket.sol",
  "abi": [
    {
      "anonymous": false,
      "inputs": [
        {
          "indexed": false,
          "internalType": "uint256",
          "name": "_eventId",
          "type": "uint256"
        },
        {
          "indexed": false,
          "internalType": "bool",
          "name": "_status",
          "type": "bool"
        }
      ],
      "name": "EnteredEventSuccessfully",
      "type": "event"
    },
    {
      "anonymous": false,
      "inputs": [
        {
          "indexed": false,
          "internalType": "address",
          "name": "_from",
          "type": "address"
        },
        {
          "indexed": false,
          "internalType": "string",
          "name": "_name",
          "type": "string"
        },
        {
          "indexed": false,
          "internalType": "uint256",
          "name": "_date",
          "type": "uint256"
        },
        {
          "indexed": false,
          "internalType": "uint256",
          "name": "_price",
          "type": "uint256"
        }
      ],
      "name": "EventCreatedSuccessfully",
      "type": "event"
    },
    {
      "anonymous": false,
      "inputs": [
        {
          "indexed": false,
          "internalType": "address",
          "name": "_from",
          "type": "address"
        },
        {
          "indexed": false,
          "internalType": "uint256",
          "name": "_ticket",
          "type": "uint256"
        }
      ],
      "name": "buyticketSuccesuflly",
      "type": "event"
    },
    {
      "inputs": [
        {
          "internalType": "uint256",
          "name": "_eventId",
          "type": "uint256"
        }
      ],
      "name": "EnterEvent",
      "outputs": [
        {
          "internalType": "bool",
          "name": "status",
          "type": "bool"
        }
      ],
      "stateMutability": "nonpayable",
      "type": "function"
    },
    {
      "inputs": [
        {
          "internalType": "uint256",
          "name": "id",
          "type": "uint256"
        },
        {
          "internalType": "uint256",
          "name": "quantity",
          "type": "uint256"
        }
      ],
      "name": "buyTicket",
      "outputs": [],
      "stateMutability": "payable",
      "type": "function"
    },
    {
      "inputs": [
        {
          "internalType": "string",
          "name": "name",
          "type": "string"
        },
        {
          "internalType": "uint256",
          "name": "date",
          "type": "uint256"
        },
        {
          "internalType": "uint256",
          "name": "price",
          "type": "uint256"
        },
        {
          "internalType": "uint256",
          "name": "ticketCount",
          "type": "uint256"
        }
      ],
      "name": "createEvent",
      "outputs": [],
      "stateMutability": "nonpayable",
      "type": "function"
    },
    {
      "inputs": [
        {
          "internalType": "address",
          "name": "",
          "type": "address"
        },
        {
          "internalType": "uint256",
          "name": "",
          "type": "uint256"
        },
        {
          "internalType": "uint256",
          "name": "",
          "type": "uint256"
        }
      ],
      "name": "enteredEvent",
      "outputs": [
        {
          "internalType": "uint256",
          "name": "eventId",
          "type": "uint256"
        },
        {
          "internalType": "bool",
          "name": "ticketStatus",
          "type": "bool"
        }
      ],
      "stateMutability": "view",
      "type": "function"
    },
    {
      "inputs": [
        {
          "internalType": "uint256",
          "name": "",
          "type": "uint256"
        }
      ],
      "name": "events",
      "outputs": [
        {
          "internalType": "address",
          "name": "organizer",
          "type": "address"
        },
        {
          "internalType": "string",
          "name": "name",
          "type": "string"
        },
        {
          "internalType": "uint256",
          "name": "date",
          "type": "uint256"
        },
        {
          "internalType": "uint256",
          "name": "price",
          "type": "uint256"
        },
        {
          "internalType": "uint256",
          "name": "ticketCount",
          "type": "uint256"
        },
        {
          "internalType": "uint256",
          "name": "ticketRemain",
          "type": "uint256"
        }
      ],
      "stateMutability": "view",
      "type": "function"
    },
    {
      "inputs": [],
      "name": "nextId",
      "outputs": [
        {
          "internalType": "uint256",
          "name": "",
          "type": "uint256"
        }
      ],
      "stateMutability": "view",
      "type": "function"
    },
    {
      "inputs": [
        {
          "internalType": "address",
          "name": "",
          "type": "address"
        },
        {
          "internalType": "uint256",
          "name": "",
          "type": "uint256"
        }
      ],
      "name": "tickets",
      "outputs": [
        {
          "internalType": "uint256",
          "name": "",
          "type": "uint256"
        }
      ],
      "stateMutability": "view",
      "type": "function"
    }
  ],
  "bytecode": "0x608060405234801561001057600080fd5b5061169d806100206000396000f3fe6080604052600436106100705760003560e01c806361b8ce8c1161004e57806361b8ce8c146100fc57806391e971e314610127578063d39aa63714610165578063dae7a13c146101a257610070565b80630374ab0b146100755780630b7914301461009e578063298ec208146100e0575b600080fd5b34801561008157600080fd5b5061009c60048036038101906100979190610d5d565b6101df565b005b3480156100aa57600080fd5b506100c560048036038101906100c09190610de0565b6103a5565b6040516100d796959493929190610ee5565b60405180910390f35b6100fa60048036038101906100f59190610f4d565b610489565b005b34801561010857600080fd5b50610111610786565b60405161011e9190610f8d565b60405180910390f35b34801561013357600080fd5b5061014e60048036038101906101499190610fd4565b61078c565b60405161015c929190611042565b60405180910390f35b34801561017157600080fd5b5061018c60048036038101906101879190610de0565b6107e7565b604051610199919061106b565b60405180910390f35b3480156101ae57600080fd5b506101c960048036038101906101c49190611086565b610b05565b6040516101d69190610f8d565b60405180910390f35b428311610221576040517f08c379a000000000000000000000000000000000000000000000000000000000815260040161021890611138565b60405180910390fd5b60008111610264576040517f08c379a000000000000000000000000000000000000000000000000000000000815260040161025b906111ca565b60405180910390fd5b6003600081548092919061027790611219565b91905055506040518060c001604052803373ffffffffffffffffffffffffffffffffffffffff16815260200185815260200184815260200183815260200182815260200182815250600080600354815260200190815260200160002060008201518160000160006101000a81548173ffffffffffffffffffffffffffffffffffffffff021916908373ffffffffffffffffffffffffffffffffffffffff1602179055506020820151816001019080519060200190610336929190610b2a565b5060408201518160020155606082015181600301556080820151816004015560a082015181600501559050507fde23382985683362bbb2bf2573cc897792e536a2074bf3b9b0158bce77c994db338585856040516103979493929190611262565b60405180910390a150505050565b60006020528060005260406000206000915090508060000160009054906101000a900473ffffffffffffffffffffffffffffffffffffffff16908060010180546103ee906112dd565b80601f016020809104026020016040519081016040528092919081815260200182805461041a906112dd565b80156104675780601f1061043c57610100808354040283529160200191610467565b820191906000526020600020905b81548152906001019060200180831161044a57829003601f168201915b5050505050908060020154908060030154908060040154908060050154905086565b60008060008481526020019081526020016000206002015414156104e2576040517f08c379a00000000000000000000000000000000000000000000000000000000081526004016104d99061135b565b60405180910390fd5b426000808481526020019081526020016000206002015411610539576040517f08c379a0000000000000000000000000000000000000000000000000000000008152600401610530906113c7565b60405180910390fd5b6000806000848152602001908152602001600020905081816003015461055f91906113e7565b34146105a0576040517f08c379a00000000000000000000000000000000000000000000000000000000081526004016105979061148d565b60405180910390fd5b81816005015410156105e7576040517f08c379a00000000000000000000000000000000000000000000000000000000081526004016105de906114f9565b60405180910390fd5b818160050160008282546105fb9190611519565b9250508190555081600160003373ffffffffffffffffffffffffffffffffffffffff1673ffffffffffffffffffffffffffffffffffffffff16815260200190815260200160002060008581526020019081526020016000206000828254610662919061154d565b925050819055506000600190505b82811161074757600260003373ffffffffffffffffffffffffffffffffffffffff1673ffffffffffffffffffffffffffffffffffffffff168152602001908152602001600020600085815260200190815260200160002060405180604001604052808681526020016000151581525090806001815401808255809150506001900390600052602060002090600202016000909190919091506000820151816000015560208201518160010160006101000a81548160ff0219169083151502179055505050808061073f90611219565b915050610670565b507f5b23f4bb648173e8a4c5311088018065f5e5e6cd332460b11dfeb539557b539f33836040516107799291906115a3565b60405180910390a1505050565b60035481565b600260205282600052604060002060205281600052604060002081815481106107b457600080fd5b906000526020600020906002020160009250925050508060000154908060010160009054906101000a900460ff16905082565b6000806000905060005b600260003373ffffffffffffffffffffffffffffffffffffffff1673ffffffffffffffffffffffffffffffffffffffff1681526020019081526020016000206000858152602001908152602001600020805490508110156108f55760001515600260003373ffffffffffffffffffffffffffffffffffffffff1673ffffffffffffffffffffffffffffffffffffffff168152602001908152602001600020600086815260200190815260200160002082815481106108b2576108b16115cc565b5b906000526020600020906002020160010160009054906101000a900460ff16151514156108e257600191506108f5565b80806108ed90611219565b9150506107f1565b5080610936576040517f08c379a000000000000000000000000000000000000000000000000000000000815260040161092d90611647565b60405180910390fd5b60005b600260003373ffffffffffffffffffffffffffffffffffffffff1673ffffffffffffffffffffffffffffffffffffffff168152602001908152602001600020600085815260200190815260200160002080549050811015610ac15760001515600260003373ffffffffffffffffffffffffffffffffffffffff1673ffffffffffffffffffffffffffffffffffffffff168152602001908152602001600020600086815260200190815260200160002082815481106109fa576109f96115cc565b5b906000526020600020906002020160010160009054906101000a900460ff1615151415610aae576001600260003373ffffffffffffffffffffffffffffffffffffffff1673ffffffffffffffffffffffffffffffffffffffff16815260200190815260200160002060008681526020019081526020016000208281548110610a8557610a846115cc565b5b906000526020600020906002020160010160006101000a81548160ff0219169083151502179055505b8080610ab990611219565b915050610939565b507f0e5fcbaef726c1d0027267d4ba0c445e3f405eba2623f244c0f80fe3210ec8e68383604051610af3929190611042565b60405180910390a16001915050919050565b6001602052816000526040600020602052806000526040600020600091509150505481565b828054610b36906112dd565b90600052602060002090601f016020900481019282610b585760008555610b9f565b82601f10610b7157805160ff1916838001178555610b9f565b82800160010185558215610b9f579182015b82811115610b9e578251825591602001919060010190610b83565b5b509050610bac9190610bb0565b5090565b5b80821115610bc9576000816000905550600101610bb1565b5090565b6000604051905090565b600080fd5b600080fd5b600080fd5b600080fd5b6000601f19601f8301169050919050565b7f4e487b7100000000000000000000000000000000000000000000000000000000600052604160045260246000fd5b610c3482610beb565b810181811067ffffffffffffffff82111715610c5357610c52610bfc565b5b80604052505050565b6000610c66610bcd565b9050610c728282610c2b565b919050565b600067ffffffffffffffff821115610c9257610c91610bfc565b5b610c9b82610beb565b9050602081019050919050565b82818337600083830152505050565b6000610cca610cc584610c77565b610c5c565b905082815260208101848484011115610ce657610ce5610be6565b5b610cf1848285610ca8565b509392505050565b600082601f830112610d0e57610d0d610be1565b5b8135610d1e848260208601610cb7565b91505092915050565b6000819050919050565b610d3a81610d27565b8114610d4557600080fd5b50565b600081359050610d5781610d31565b92915050565b60008060008060808587031215610d7757610d76610bd7565b5b600085013567ffffffffffffffff811115610d9557610d94610bdc565b5b610da187828801610cf9565b9450506020610db287828801610d48565b9350506040610dc387828801610d48565b9250506060610dd487828801610d48565b91505092959194509250565b600060208284031215610df657610df5610bd7565b5b6000610e0484828501610d48565b91505092915050565b600073ffffffffffffffffffffffffffffffffffffffff82169050919050565b6000610e3882610e0d565b9050919050565b610e4881610e2d565b82525050565b600081519050919050565b600082825260208201905092915050565b60005b83811015610e88578082015181840152602081019050610e6d565b83811115610e97576000848401525b50505050565b6000610ea882610e4e565b610eb28185610e59565b9350610ec2818560208601610e6a565b610ecb81610beb565b840191505092915050565b610edf81610d27565b82525050565b600060c082019050610efa6000830189610e3f565b8181036020830152610f0c8188610e9d565b9050610f1b6040830187610ed6565b610f286060830186610ed6565b610f356080830185610ed6565b610f4260a0830184610ed6565b979650505050505050565b60008060408385031215610f6457610f63610bd7565b5b6000610f7285828601610d48565b9250506020610f8385828601610d48565b9150509250929050565b6000602082019050610fa26000830184610ed6565b92915050565b610fb181610e2d565b8114610fbc57600080fd5b50565b600081359050610fce81610fa8565b92915050565b600080600060608486031215610fed57610fec610bd7565b5b6000610ffb86828701610fbf565b935050602061100c86828701610d48565b925050604061101d86828701610d48565b9150509250925092565b60008115159050919050565b61103c81611027565b82525050565b60006040820190506110576000830185610ed6565b6110646020830184611033565b9392505050565b60006020820190506110806000830184611033565b92915050565b6000806040838503121561109d5761109c610bd7565b5b60006110ab85828601610fbf565b92505060206110bc85828601610d48565b9150509250929050565b7f596f752063616e206f7267616e697a65206576656e7420666f7220667574757260008201527f6520646174650000000000000000000000000000000000000000000000000000602082015250565b6000611122602683610e59565b915061112d826110c6565b604082019050919050565b6000602082019050818103600083015261115181611115565b9050919050565b7f596f752063616e206f7267616e697a65206576656e74206f6e6c79206966207960008201527f6f7520637265617465206d6f7265207468616e2030207469636b657473000000602082015250565b60006111b4603d83610e59565b91506111bf82611158565b604082019050919050565b600060208201905081810360008301526111e3816111a7565b9050919050565b7f4e487b7100000000000000000000000000000000000000000000000000000000600052601160045260246000fd5b600061122482610d27565b91507fffffffffffffffffffffffffffffffffffffffffffffffffffffffffffffffff821415611257576112566111ea565b5b600182019050919050565b60006080820190506112776000830187610e3f565b81810360208301526112898186610e9d565b90506112986040830185610ed6565b6112a56060830184610ed6565b95945050505050565b7f4e487b7100000000000000000000000000000000000000000000000000000000600052602260045260246000fd5b600060028204905060018216806112f557607f821691505b60208210811415611309576113086112ae565b5b50919050565b7f4576656e7420646f6573206e6f74206578697374000000000000000000000000600082015250565b6000611345601483610e59565b91506113508261130f565b602082019050919050565b6000602082019050818103600083015261137481611338565b9050919050565b7f4576656e742068617320616c7265616479206f63637572656400000000000000600082015250565b60006113b1601983610e59565b91506113bc8261137b565b602082019050919050565b600060208201905081810360008301526113e0816113a4565b9050919050565b60006113f282610d27565b91506113fd83610d27565b9250817fffffffffffffffffffffffffffffffffffffffffffffffffffffffffffffffff0483118215151615611436576114356111ea565b5b828202905092915050565b7f4574686572206973206e6f7420656e6f75676800000000000000000000000000600082015250565b6000611477601383610e59565b915061148282611441565b602082019050919050565b600060208201905081810360008301526114a68161146a565b9050919050565b7f4e6f7420656e6f756768207469636b6574730000000000000000000000000000600082015250565b60006114e3601283610e59565b91506114ee826114ad565b602082019050919050565b60006020820190508181036000830152611512816114d6565b9050919050565b600061152482610d27565b915061152f83610d27565b925082821015611542576115416111ea565b5b828203905092915050565b600061155882610d27565b915061156383610d27565b9250827fffffffffffffffffffffffffffffffffffffffffffffffffffffffffffffffff03821115611598576115976111ea565b5b828201905092915050565b60006040820190506115b86000830185610e3f565b6115c56020830184610ed6565b9392505050565b7f4e487b7100000000000000000000000000000000000000000000000000000000600052603260045260246000fd5b7f596f7572207469636b657420757365642e000000000000000000000000000000600082015250565b6000611631601183610e59565b915061163c826115fb565b602082019050919050565b6000602082019050818103600083015261166081611624565b905091905056fea26469706673582212203b2c214356c413bf52aac02cb2cc0ca765cab61ea83e04f28ea60f54768b7fc364736f6c63430008090033",
  "linkReferences": {},
  "deployedLinkReferences": {}
}