{
  "_format": "hh-sol-artifact-1",
  "contractName": "EventContract",
  "sourceName": "contracts/Ticket.sol",
  "abi": [
    {
      "inputs": [],
      "stateMutability": "nonpayable",
      "type": "constructor"
    },
    {
      "inputs": [
        {
          "internalType": "uint256",
          "name": "id",
          "type": "uint256"
        },
        {
          "internalType": "uint256",
          "name": "quantity",
          "type": "uint256"
        }
      ],
      "name": "buyTicket",
      "outputs": [],
      "stateMutability": "payable",
      "type": "function"
    },
    {
      "inputs": [
        {
          "internalType": "string",
          "name": "name",
          "type": "string"
        },
        {
          "internalType": "uint256",
          "name": "date",
          "type": "uint256"
        },
        {
          "internalType": "uint256",
          "name": "price",
          "type": "uint256"
        },
        {
          "internalType": "uint256",
          "name": "ticketCount",
          "type": "uint256"
        }
      ],
      "name": "createEvent",
      "outputs": [],
      "stateMutability": "nonpayable",
      "type": "function"
    },
    {
      "inputs": [
        {
          "internalType": "uint256",
          "name": "",
          "type": "uint256"
        }
      ],
      "name": "events",
      "outputs": [
        {
          "internalType": "address",
          "name": "organizer",
          "type": "address"
        },
        {
          "internalType": "string",
          "name": "name",
          "type": "string"
        },
        {
          "internalType": "uint256",
          "name": "date",
          "type": "uint256"
        },
        {
          "internalType": "uint256",
          "name": "price",
          "type": "uint256"
        },
        {
          "internalType": "uint256",
          "name": "ticketCount",
          "type": "uint256"
        },
        {
          "internalType": "uint256",
          "name": "ticketRemain",
          "type": "uint256"
        }
      ],
      "stateMutability": "view",
      "type": "function"
    },
    {
      "inputs": [],
      "name": "getEvent",
      "outputs": [
        {
          "components": [
            {
              "internalType": "address",
              "name": "organizer",
              "type": "address"
            },
            {
              "internalType": "string",
              "name": "name",
              "type": "string"
            },
            {
              "internalType": "uint256",
              "name": "date",
              "type": "uint256"
            },
            {
              "internalType": "uint256",
              "name": "price",
              "type": "uint256"
            },
            {
              "internalType": "uint256",
              "name": "ticketCount",
              "type": "uint256"
            },
            {
              "internalType": "uint256",
              "name": "ticketRemain",
              "type": "uint256"
            }
          ],
          "internalType": "struct EventContract.Event[]",
          "name": "",
          "type": "tuple[]"
        }
      ],
      "stateMutability": "view",
      "type": "function"
    },
    {
      "inputs": [],
      "name": "nextId",
      "outputs": [
        {
          "internalType": "uint256",
          "name": "",
          "type": "uint256"
        }
      ],
      "stateMutability": "view",
      "type": "function"
    },
    {
      "inputs": [
        {
          "internalType": "address",
          "name": "",
          "type": "address"
        },
        {
          "internalType": "uint256",
          "name": "",
          "type": "uint256"
        }
      ],
      "name": "tickets",
      "outputs": [
        {
          "internalType": "uint256",
          "name": "",
          "type": "uint256"
        }
      ],
      "stateMutability": "view",
      "type": "function"
    },
    {
      "inputs": [
        {
          "internalType": "uint256",
          "name": "id",
          "type": "uint256"
        },
        {
          "internalType": "uint256",
          "name": "quantity",
          "type": "uint256"
        },
        {
          "internalType": "address",
          "name": "to",
          "type": "address"
        }
      ],
      "name": "transferTicket",
      "outputs": [],
      "stateMutability": "nonpayable",
      "type": "function"
    }
  ],
  "bytecode": "0x608060405234801561001057600080fd5b5033600160006101000a81548173ffffffffffffffffffffffffffffffffffffffff021916908373ffffffffffffffffffffffffffffffffffffffff16021790555061125d806100616000396000f3fe6080604052600436106100705760003560e01c806361b8ce8c1161004e57806361b8ce8c146100fc578063bf819c2014610127578063dae7a13c14610152578063f086a09b1461018f57610070565b80630374ab0b146100755780630b7914301461009e578063298ec208146100e0575b600080fd5b34801561008157600080fd5b5061009c60048036038101906100979190610b8b565b6101b8565b005b3480156100aa57600080fd5b506100c560048036038101906100c09190610c0e565b6103c7565b6040516100d796959493929190610d13565b60405180910390f35b6100fa60048036038101906100f59190610d7b565b6104ab565b005b34801561010857600080fd5b506101116105bb565b60405161011e9190610dbb565b60405180910390f35b34801561013357600080fd5b5061013c6105c1565b6040516101499190610f89565b60405180910390f35b34801561015e57600080fd5b5061017960048036038101906101749190610fd7565b610730565b6040516101869190610dbb565b60405180910390f35b34801561019b57600080fd5b506101b660048036038101906101b19190611017565b610755565b005b4283116101c457600080fd5b600081116101d157600080fd5b6040518060c001604052803373ffffffffffffffffffffffffffffffffffffffff1681526020018581526020018481526020018381526020018281526020018281525060026000600454815260200190815260200160002060008201518160000160006101000a81548173ffffffffffffffffffffffffffffffffffffffff021916908373ffffffffffffffffffffffffffffffffffffffff160217905550602082015181600101908051906020019061028c9291906108cb565b5060408201518160020155606082015181600301556080820151816004015560a08201518160050155905050600060026000600454815260200190815260200160002090806001815401808255809150506001900390600052602060002090600602016000909190919091506000820160009054906101000a900473ffffffffffffffffffffffffffffffffffffffff168160000160006101000a81548173ffffffffffffffffffffffffffffffffffffffff021916908373ffffffffffffffffffffffffffffffffffffffff160217905550600182018160010190805461037390611099565b61037e929190610951565b50600282015481600201556003820154816003015560048201548160040155600582015481600501555050600460008154809291906103bc906110fa565b919050555050505050565b60026020528060005260406000206000915090508060000160009054906101000a900473ffffffffffffffffffffffffffffffffffffffff169080600101805461041090611099565b80601f016020809104026020016040519081016040528092919081815260200182805461043c90611099565b80156104895780601f1061045e57610100808354040283529160200191610489565b820191906000526020600020905b81548152906001019060200180831161046c57829003601f168201915b5050505050908060020154908060030154908060040154908060050154905086565b6000600260008481526020019081526020016000206002015414156104cf57600080fd5b426002600084815260200190815260200160002060020154116104f157600080fd5b60006002600084815260200190815260200160002090508181600301546105189190611143565b341461052357600080fd5b818160050154101561053457600080fd5b81816005016000828254610548919061119d565b9250508190555081600360003373ffffffffffffffffffffffffffffffffffffffff1673ffffffffffffffffffffffffffffffffffffffff168152602001908152602001600020600085815260200190815260200160002060008282546105af91906111d1565b92505081905550505050565b60045481565b60606000805480602002602001604051908101604052809291908181526020016000905b8282101561072757838290600052602060002090600602016040518060c00160405290816000820160009054906101000a900473ffffffffffffffffffffffffffffffffffffffff1673ffffffffffffffffffffffffffffffffffffffff1673ffffffffffffffffffffffffffffffffffffffff16815260200160018201805461066e90611099565b80601f016020809104026020016040519081016040528092919081815260200182805461069a90611099565b80156106e75780601f106106bc576101008083540402835291602001916106e7565b820191906000526020600020905b8154815290600101906020018083116106ca57829003601f168201915b50505050508152602001600282015481526020016003820154815260200160048201548152602001600582015481525050815260200190600101906105e5565b50505050905090565b6003602052816000526040600020602052806000526040600020600091509150505481565b60006002600085815260200190815260200160002060020154141561077957600080fd5b4260026000858152602001908152602001600020600201541161079b57600080fd5b81600360003373ffffffffffffffffffffffffffffffffffffffff1673ffffffffffffffffffffffffffffffffffffffff16815260200190815260200160002060008581526020019081526020016000205410156107f857600080fd5b81600360003373ffffffffffffffffffffffffffffffffffffffff1673ffffffffffffffffffffffffffffffffffffffff16815260200190815260200160002060008581526020019081526020016000206000828254610858919061119d565b9250508190555081600360008373ffffffffffffffffffffffffffffffffffffffff1673ffffffffffffffffffffffffffffffffffffffff168152602001908152602001600020600085815260200190815260200160002060008282546108bf91906111d1565b92505081905550505050565b8280546108d790611099565b90600052602060002090601f0160209004810192826108f95760008555610940565b82601f1061091257805160ff1916838001178555610940565b82800160010185558215610940579182015b8281111561093f578251825591602001919060010190610924565b5b50905061094d91906109de565b5090565b82805461095d90611099565b90600052602060002090601f01602090048101928261097f57600085556109cd565b82601f1061099057805485556109cd565b828001600101855582156109cd57600052602060002091601f016020900482015b828111156109cc5782548255916001019190600101906109b1565b5b5090506109da91906109de565b5090565b5b808211156109f75760008160009055506001016109df565b5090565b6000604051905090565b600080fd5b600080fd5b600080fd5b600080fd5b6000601f19601f8301169050919050565b7f4e487b7100000000000000000000000000000000000000000000000000000000600052604160045260246000fd5b610a6282610a19565b810181811067ffffffffffffffff82111715610a8157610a80610a2a565b5b80604052505050565b6000610a946109fb565b9050610aa08282610a59565b919050565b600067ffffffffffffffff821115610ac057610abf610a2a565b5b610ac982610a19565b9050602081019050919050565b82818337600083830152505050565b6000610af8610af384610aa5565b610a8a565b905082815260208101848484011115610b1457610b13610a14565b5b610b1f848285610ad6565b509392505050565b600082601f830112610b3c57610b3b610a0f565b5b8135610b4c848260208601610ae5565b91505092915050565b6000819050919050565b610b6881610b55565b8114610b7357600080fd5b50565b600081359050610b8581610b5f565b92915050565b60008060008060808587031215610ba557610ba4610a05565b5b600085013567ffffffffffffffff811115610bc357610bc2610a0a565b5b610bcf87828801610b27565b9450506020610be087828801610b76565b9350506040610bf187828801610b76565b9250506060610c0287828801610b76565b91505092959194509250565b600060208284031215610c2457610c23610a05565b5b6000610c3284828501610b76565b91505092915050565b600073ffffffffffffffffffffffffffffffffffffffff82169050919050565b6000610c6682610c3b565b9050919050565b610c7681610c5b565b82525050565b600081519050919050565b600082825260208201905092915050565b60005b83811015610cb6578082015181840152602081019050610c9b565b83811115610cc5576000848401525b50505050565b6000610cd682610c7c565b610ce08185610c87565b9350610cf0818560208601610c98565b610cf981610a19565b840191505092915050565b610d0d81610b55565b82525050565b600060c082019050610d286000830189610c6d565b8181036020830152610d3a8188610ccb565b9050610d496040830187610d04565b610d566060830186610d04565b610d636080830185610d04565b610d7060a0830184610d04565b979650505050505050565b60008060408385031215610d9257610d91610a05565b5b6000610da085828601610b76565b9250506020610db185828601610b76565b9150509250929050565b6000602082019050610dd06000830184610d04565b92915050565b600081519050919050565b600082825260208201905092915050565b6000819050602082019050919050565b610e0b81610c5b565b82525050565b600082825260208201905092915050565b6000610e2d82610c7c565b610e378185610e11565b9350610e47818560208601610c98565b610e5081610a19565b840191505092915050565b610e6481610b55565b82525050565b600060c083016000830151610e826000860182610e02565b5060208301518482036020860152610e9a8282610e22565b9150506040830151610eaf6040860182610e5b565b506060830151610ec26060860182610e5b565b506080830151610ed56080860182610e5b565b5060a0830151610ee860a0860182610e5b565b508091505092915050565b6000610eff8383610e6a565b905092915050565b6000602082019050919050565b6000610f1f82610dd6565b610f298185610de1565b935083602082028501610f3b85610df2565b8060005b85811015610f775784840389528151610f588582610ef3565b9450610f6383610f07565b925060208a01995050600181019050610f3f565b50829750879550505050505092915050565b60006020820190508181036000830152610fa38184610f14565b905092915050565b610fb481610c5b565b8114610fbf57600080fd5b50565b600081359050610fd181610fab565b92915050565b60008060408385031215610fee57610fed610a05565b5b6000610ffc85828601610fc2565b925050602061100d85828601610b76565b9150509250929050565b6000806000606084860312156110305761102f610a05565b5b600061103e86828701610b76565b935050602061104f86828701610b76565b925050604061106086828701610fc2565b9150509250925092565b7f4e487b7100000000000000000000000000000000000000000000000000000000600052602260045260246000fd5b600060028204905060018216806110b157607f821691505b602082108114156110c5576110c461106a565b5b50919050565b7f4e487b7100000000000000000000000000000000000000000000000000000000600052601160045260246000fd5b600061110582610b55565b91507fffffffffffffffffffffffffffffffffffffffffffffffffffffffffffffffff821415611138576111376110cb565b5b600182019050919050565b600061114e82610b55565b915061115983610b55565b9250817fffffffffffffffffffffffffffffffffffffffffffffffffffffffffffffffff0483118215151615611192576111916110cb565b5b828202905092915050565b60006111a882610b55565b91506111b383610b55565b9250828210156111c6576111c56110cb565b5b828203905092915050565b60006111dc82610b55565b91506111e783610b55565b9250827fffffffffffffffffffffffffffffffffffffffffffffffffffffffffffffffff0382111561121c5761121b6110cb565b5b82820190509291505056fea26469706673582212205bed617b1466aff850a0cc4d07caef1d4d166a4853f51a862e2fd20f87301d0264736f6c63430008090033",
  "linkReferences": {},
  "deployedLinkReferences": {}
}